{
  "contractName": "HarbergerAds",
  "abi": [
    {
      "constant": false,
      "inputs": [],
      "name": "renounceOwnership",
      "outputs": [],
      "payable": false,
      "stateMutability": "nonpayable",
      "type": "function",
      "signature": "0x715018a6"
    },
    {
      "constant": true,
      "inputs": [],
      "name": "erc20",
      "outputs": [
        {
          "name": "",
          "type": "address"
        }
      ],
      "payable": false,
      "stateMutability": "view",
      "type": "function",
      "signature": "0x785e9e86"
    },
    {
      "constant": true,
      "inputs": [],
      "name": "owner",
      "outputs": [
        {
          "name": "",
          "type": "address"
        }
      ],
      "payable": false,
      "stateMutability": "view",
      "type": "function",
      "signature": "0x8da5cb5b"
    },
    {
      "constant": true,
      "inputs": [],
      "name": "taxNumerator",
      "outputs": [
        {
          "name": "",
          "type": "uint256"
        }
      ],
      "payable": false,
      "stateMutability": "view",
      "type": "function",
      "signature": "0x9631af0b"
    },
    {
      "constant": true,
      "inputs": [],
      "name": "taxDenominator",
      "outputs": [
        {
          "name": "",
          "type": "uint256"
        }
      ],
      "payable": false,
      "stateMutability": "view",
      "type": "function",
      "signature": "0xb361b2b5"
    },
    {
      "constant": false,
      "inputs": [
        {
          "name": "_newOwner",
          "type": "address"
        }
      ],
      "name": "transferOwnership",
      "outputs": [],
      "payable": false,
      "stateMutability": "nonpayable",
      "type": "function",
      "signature": "0xf2fde38b"
    },
    {
      "constant": true,
      "inputs": [
        {
          "name": "",
          "type": "uint256"
        }
      ],
      "name": "properties",
      "outputs": [
        {
          "name": "taxRecipient",
          "type": "address"
        },
        {
          "name": "owner",
          "type": "address"
        },
        {
          "name": "price",
          "type": "uint256"
        },
        {
          "name": "paidThru",
          "type": "uint256"
        }
      ],
      "payable": false,
      "stateMutability": "view",
      "type": "function",
      "signature": "0xf7b10808"
    },
    {
      "inputs": [
        {
          "name": "erc20Address",
          "type": "address"
        },
        {
          "name": "_taxNumerator",
          "type": "uint256"
        },
        {
          "name": "_taxDenominator",
          "type": "uint256"
        }
      ],
      "payable": false,
      "stateMutability": "nonpayable",
      "type": "constructor",
      "signature": "constructor"
    },
    {
      "anonymous": false,
      "inputs": [
        {
          "indexed": true,
          "name": "id",
          "type": "uint256"
        },
        {
          "indexed": true,
          "name": "to",
          "type": "address"
        },
        {
          "indexed": true,
          "name": "from",
          "type": "address"
        },
        {
          "indexed": false,
          "name": "price",
          "type": "uint256"
        }
      ],
      "name": "Change",
      "type": "event",
      "signature": "0x62c73e9b417b0f3e1319208e857f8ead9b12f27b0a101587170d80787bb65629"
    },
    {
      "anonymous": false,
      "inputs": [
        {
          "indexed": true,
          "name": "id",
          "type": "uint256"
        },
        {
          "indexed": true,
          "name": "to",
          "type": "address"
        },
        {
          "indexed": true,
          "name": "from",
          "type": "address"
        }
      ],
      "name": "ChangeRecipient",
      "type": "event",
      "signature": "0x762566a6fa8037441ab8186300bd5e7d04d774e7b629a4277f84fcbf0bb17f94"
    },
    {
      "anonymous": false,
      "inputs": [
        {
          "indexed": true,
          "name": "id",
          "type": "uint256"
        },
        {
          "indexed": false,
          "name": "owner",
          "type": "address"
        },
        {
          "indexed": false,
          "name": "paid",
          "type": "uint256"
        }
      ],
      "name": "TaxesPaid",
      "type": "event",
      "signature": "0xcb3dc00dad463d6e863a30d04ab42fb2164e4b3fcf950e4a6d7c61214632dead"
    },
    {
      "anonymous": false,
      "inputs": [
        {
          "indexed": true,
          "name": "previousOwner",
          "type": "address"
        }
      ],
      "name": "OwnershipRenounced",
      "type": "event",
      "signature": "0xf8df31144d9c2f0f6b59d69b8b98abd5459d07f2742c4df920b25aae33c64820"
    },
    {
      "anonymous": false,
      "inputs": [
        {
          "indexed": true,
          "name": "previousOwner",
          "type": "address"
        },
        {
          "indexed": true,
          "name": "newOwner",
          "type": "address"
        }
      ],
      "name": "OwnershipTransferred",
      "type": "event",
      "signature": "0x8be0079c531659141344cd1fd0a4f28419497f9722a3daafe3b4186f6b6457e0"
    },
    {
      "constant": true,
      "inputs": [
        {
          "name": "id",
          "type": "uint256"
        }
      ],
      "name": "taxesDue",
      "outputs": [
        {
          "name": "",
          "type": "uint256"
        }
      ],
      "payable": false,
      "stateMutability": "view",
      "type": "function",
      "signature": "0xeb43107f"
    },
    {
      "constant": true,
      "inputs": [
        {
          "name": "user",
          "type": "address"
        }
      ],
      "name": "balanceOf",
      "outputs": [
        {
          "name": "",
          "type": "uint256"
        }
      ],
      "payable": false,
      "stateMutability": "view",
      "type": "function",
      "signature": "0x70a08231"
    },
    {
      "constant": false,
      "inputs": [
        {
          "name": "price",
          "type": "uint256"
        }
      ],
      "name": "addProperty",
      "outputs": [],
      "payable": false,
      "stateMutability": "nonpayable",
      "type": "function",
      "signature": "0x267982e8"
    },
    {
      "constant": false,
      "inputs": [
        {
          "name": "id",
          "type": "uint256"
        }
      ],
      "name": "forecloseIfPossible",
      "outputs": [],
      "payable": false,
      "stateMutability": "nonpayable",
      "type": "function",
      "signature": "0x7612aee3"
    },
    {
      "constant": false,
      "inputs": [
        {
          "name": "id",
          "type": "uint256"
        }
      ],
      "name": "collectTaxes",
      "outputs": [
        {
          "name": "",
          "type": "bool"
        }
      ],
      "payable": false,
      "stateMutability": "nonpayable",
      "type": "function",
      "signature": "0x7b74b8ec"
    },
    {
      "constant": false,
      "inputs": [
        {
          "name": "id",
          "type": "uint256"
        },
        {
          "name": "max",
          "type": "uint256"
        },
        {
          "name": "price",
          "type": "uint256"
        }
      ],
      "name": "buy",
      "outputs": [],
      "payable": false,
      "stateMutability": "nonpayable",
      "type": "function",
      "signature": "0x40993b26"
    },
    {
      "constant": true,
      "inputs": [],
      "name": "propertyCount",
      "outputs": [
        {
          "name": "",
          "type": "uint256"
        }
      ],
      "payable": false,
      "stateMutability": "view",
      "type": "function",
      "signature": "0xc361a335"
    },
    {
      "constant": false,
      "inputs": [
        {
          "name": "id",
          "type": "uint256"
        },
        {
          "name": "newRecipient",
          "type": "address"
        }
      ],
      "name": "changeRecipient",
      "outputs": [],
      "payable": false,
      "stateMutability": "nonpayable",
      "type": "function",
      "signature": "0x6e1d4d8e"
    }
  ],
  "bytecode": "0x608060405234801561001057600080fd5b50604051606080611be0833981018060405281019080805190602001909291908051906020019092919080519060200190929190505050336000806101000a81548173ffffffffffffffffffffffffffffffffffffffff021916908373ffffffffffffffffffffffffffffffffffffffff160217905550816001819055508060028190555082600360006101000a81548173ffffffffffffffffffffffffffffffffffffffff021916908373ffffffffffffffffffffffffffffffffffffffff160217905550505050611af8806100e86000396000f3006080604052600436106100db576000357c0100000000000000000000000000000000000000000000000000000000900463ffffffff168063267982e8146100e057806340993b261461010d5780636e1d4d8e1461014e57806370a082311461019b578063715018a6146101f25780637612aee314610209578063785e9e86146102365780637b74b8ec1461028d5780638da5cb5b146102d25780639631af0b14610329578063b361b2b514610354578063c361a3351461037f578063eb43107f146103aa578063f2fde38b146103eb578063f7b108081461042e575b600080fd5b3480156100ec57600080fd5b5061010b600480360381019080803590602001909291905050506104dc565b005b34801561011957600080fd5b5061014c60048036038101908080359060200190929190803590602001909291908035906020019092919050505061068d565b005b34801561015a57600080fd5b5061019960048036038101908080359060200190929190803573ffffffffffffffffffffffffffffffffffffffff169060200190929190505050610ab6565b005b3480156101a757600080fd5b506101dc600480360381019080803573ffffffffffffffffffffffffffffffffffffffff169060200190929190505050610c57565b6040518082815260200191505060405180910390f35b3480156101fe57600080fd5b50610207610e9f565b005b34801561021557600080fd5b5061023460048036038101908080359060200190929190505050610fa1565b005b34801561024257600080fd5b5061024b61118f565b604051808273ffffffffffffffffffffffffffffffffffffffff1673ffffffffffffffffffffffffffffffffffffffff16815260200191505060405180910390f35b34801561029957600080fd5b506102b8600480360381019080803590602001909291905050506111b5565b604051808215151515815260200191505060405180910390f35b3480156102de57600080fd5b506102e7611803565b604051808273ffffffffffffffffffffffffffffffffffffffff1673ffffffffffffffffffffffffffffffffffffffff16815260200191505060405180910390f35b34801561033557600080fd5b5061033e611828565b6040518082815260200191505060405180910390f35b34801561036057600080fd5b5061036961182e565b6040518082815260200191505060405180910390f35b34801561038b57600080fd5b50610394611834565b6040518082815260200191505060405180910390f35b3480156103b657600080fd5b506103d560048036038101908080359060200190929190505050611841565b6040518082815260200191505060405180910390f35b3480156103f757600080fd5b5061042c600480360381019080803573ffffffffffffffffffffffffffffffffffffffff169060200190929190505050611897565b005b34801561043a57600080fd5b50610459600480360381019080803590602001909291905050506118fe565b604051808573ffffffffffffffffffffffffffffffffffffffff1673ffffffffffffffffffffffffffffffffffffffff1681526020018473ffffffffffffffffffffffffffffffffffffffff1673ffffffffffffffffffffffffffffffffffffffff16815260200183815260200182815260200194505050505060405180910390f35b6104e4611a77565b600033826020019073ffffffffffffffffffffffffffffffffffffffff16908173ffffffffffffffffffffffffffffffffffffffff168152505033826000019073ffffffffffffffffffffffffffffffffffffffff16908173ffffffffffffffffffffffffffffffffffffffff16815250508282604001818152505060016004839080600181540180825580915050906001820390600052602060002090600402016000909192909190915060008201518160000160006101000a81548173ffffffffffffffffffffffffffffffffffffffff021916908373ffffffffffffffffffffffffffffffffffffffff16021790555060208201518160010160006101000a81548173ffffffffffffffffffffffffffffffffffffffff021916908373ffffffffffffffffffffffffffffffffffffffff1602179055506040820151816002015560608201518160030155505003905060003373ffffffffffffffffffffffffffffffffffffffff16827f62c73e9b417b0f3e1319208e857f8ead9b12f27b0a101587170d80787bb65629866040518082815260200191505060405180910390a4505050565b60008060048581548110151561069f57fe5b906000526020600020906004020191506106b8856111b5565b506106c285610fa1565b8160010160009054906101000a900473ffffffffffffffffffffffffffffffffffffffff1690503373ffffffffffffffffffffffffffffffffffffffff168173ffffffffffffffffffffffffffffffffffffffff16141515610a40578160020154841015151561079a576040517f08c379a00000000000000000000000000000000000000000000000000000000081526004018080602001828103825260118152602001807f707269636520697320746f6f206869676800000000000000000000000000000081525060200191505060405180910390fd5b81600201546107a833610c57565b1015151561081e576040517f08c379a00000000000000000000000000000000000000000000000000000000081526004018080602001828103825260128152602001807f696e73756666696369656e742066756e6473000000000000000000000000000081525060200191505060405180910390fd5b6000826002015411156109fc57600360009054906101000a900473ffffffffffffffffffffffffffffffffffffffff1673ffffffffffffffffffffffffffffffffffffffff166323b872dd8360010160009054906101000a900473ffffffffffffffffffffffffffffffffffffffff168385600201546040518463ffffffff167c0100000000000000000000000000000000000000000000000000000000028152600401808473ffffffffffffffffffffffffffffffffffffffff1673ffffffffffffffffffffffffffffffffffffffff1681526020018373ffffffffffffffffffffffffffffffffffffffff1673ffffffffffffffffffffffffffffffffffffffff1681526020018281526020019350505050602060405180830381600087803b15801561094c57600080fd5b505af1158015610960573d6000803e3d6000fd5b505050506040513d602081101561097657600080fd5b810190808051906020019092919050505015156109fb576040517f08c379a00000000000000000000000000000000000000000000000000000000081526004018080602001828103825260138152602001807f7472616e7366657246726f6d206661696c65640000000000000000000000000081525060200191505060405180910390fd5b5b338260010160006101000a81548173ffffffffffffffffffffffffffffffffffffffff021916908373ffffffffffffffffffffffffffffffffffffffff1602179055505b8282600201819055508073ffffffffffffffffffffffffffffffffffffffff163373ffffffffffffffffffffffffffffffffffffffff16867f62c73e9b417b0f3e1319208e857f8ead9b12f27b0a101587170d80787bb65629866040518082815260200191505060405180910390a45050505050565b600482815481101515610ac557fe5b906000526020600020906004020160000160009054906101000a900473ffffffffffffffffffffffffffffffffffffffff1673ffffffffffffffffffffffffffffffffffffffff163373ffffffffffffffffffffffffffffffffffffffff16141515610b99576040517f08c379a000000000000000000000000000000000000000000000000000000000815260040180806020018281038252601d8152602001807f6d7573742062652070726576696f757320746178526563697069656e7400000081525060200191505060405180910390fd5b80600483815481101515610ba957fe5b906000526020600020906004020160000160006101000a81548173ffffffffffffffffffffffffffffffffffffffff021916908373ffffffffffffffffffffffffffffffffffffffff1602179055503373ffffffffffffffffffffffffffffffffffffffff168173ffffffffffffffffffffffffffffffffffffffff16837f762566a6fa8037441ab8186300bd5e7d04d774e7b629a4277f84fcbf0bb17f9460405160405180910390a45050565b6000806000600360009054906101000a900473ffffffffffffffffffffffffffffffffffffffff1673ffffffffffffffffffffffffffffffffffffffff166370a08231856040518263ffffffff167c0100000000000000000000000000000000000000000000000000000000028152600401808273ffffffffffffffffffffffffffffffffffffffff1673ffffffffffffffffffffffffffffffffffffffff168152602001915050602060405180830381600087803b158015610d1957600080fd5b505af1158015610d2d573d6000803e3d6000fd5b505050506040513d6020811015610d4357600080fd5b81019080805190602001909291905050509150600360009054906101000a900473ffffffffffffffffffffffffffffffffffffffff1673ffffffffffffffffffffffffffffffffffffffff1663dd62ed3e85306040518363ffffffff167c0100000000000000000000000000000000000000000000000000000000028152600401808373ffffffffffffffffffffffffffffffffffffffff1673ffffffffffffffffffffffffffffffffffffffff1681526020018273ffffffffffffffffffffffffffffffffffffffff1673ffffffffffffffffffffffffffffffffffffffff16815260200192505050602060405180830381600087803b158015610e4757600080fd5b505af1158015610e5b573d6000803e3d6000fd5b505050506040513d6020811015610e7157600080fd5b8101908080519060200190929190505050905080821115610e9457809250610e98565b8192505b5050919050565b6000809054906101000a900473ffffffffffffffffffffffffffffffffffffffff1673ffffffffffffffffffffffffffffffffffffffff163373ffffffffffffffffffffffffffffffffffffffff16141515610efa57600080fd5b6000809054906101000a900473ffffffffffffffffffffffffffffffffffffffff1673ffffffffffffffffffffffffffffffffffffffff167ff8df31144d9c2f0f6b59d69b8b98abd5459d07f2742c4df920b25aae33c6482060405160405180910390a260008060006101000a81548173ffffffffffffffffffffffffffffffffffffffff021916908373ffffffffffffffffffffffffffffffffffffffff160217905550565b6000600482815481101515610fb257fe5b906000526020600020906004020190508060000160009054906101000a900473ffffffffffffffffffffffffffffffffffffffff1673ffffffffffffffffffffffffffffffffffffffff168160010160009054906101000a900473ffffffffffffffffffffffffffffffffffffffff1673ffffffffffffffffffffffffffffffffffffffff1614158015611072575060006110708260010160009054906101000a900473ffffffffffffffffffffffffffffffffffffffff16610c57565b145b80156110815750428160030154105b8015611091575060008160020154115b1561118b578060010160009054906101000a900473ffffffffffffffffffffffffffffffffffffffff1673ffffffffffffffffffffffffffffffffffffffff166000837f62c73e9b417b0f3e1319208e857f8ead9b12f27b0a101587170d80787bb6562960006040518082815260200191505060405180910390a460048281548110151561111b57fe5b9060005260206000209060040201600080820160006101000a81549073ffffffffffffffffffffffffffffffffffffffff02191690556001820160006101000a81549073ffffffffffffffffffffffffffffffffffffffff02191690556002820160009055600382016000905550505b5050565b600360009054906101000a900473ffffffffffffffffffffffffffffffffffffffff1681565b6000806000806004858154811015156111ca57fe5b906000526020600020906004020192508260000160009054906101000a900473ffffffffffffffffffffffffffffffffffffffff1673ffffffffffffffffffffffffffffffffffffffff168360010160009054906101000a900473ffffffffffffffffffffffffffffffffffffffff1673ffffffffffffffffffffffffffffffffffffffff16141561126857428360030181905550600193506117fb565b6112958360010160009054906101000a900473ffffffffffffffffffffffffffffffffffffffff16610c57565b91506112a085611841565b905081811115156115475742836003018190555060008111156114ae57600360009054906101000a900473ffffffffffffffffffffffffffffffffffffffff1673ffffffffffffffffffffffffffffffffffffffff166323b872dd8460010160009054906101000a900473ffffffffffffffffffffffffffffffffffffffff168560000160009054906101000a900473ffffffffffffffffffffffffffffffffffffffff16846040518463ffffffff167c0100000000000000000000000000000000000000000000000000000000028152600401808473ffffffffffffffffffffffffffffffffffffffff1673ffffffffffffffffffffffffffffffffffffffff1681526020018373ffffffffffffffffffffffffffffffffffffffff1673ffffffffffffffffffffffffffffffffffffffff1681526020018281526020019350505050602060405180830381600087803b1580156113fe57600080fd5b505af1158015611412573d6000803e3d6000fd5b505050506040513d602081101561142857600080fd5b810190808051906020019092919050505015156114ad576040517f08c379a00000000000000000000000000000000000000000000000000000000081526004018080602001828103825260138152602001807f7472616e7366657246726f6d206661696c65640000000000000000000000000081525060200191505060405180910390fd5b5b847fcb3dc00dad463d6e863a30d04ab42fb2164e4b3fcf950e4a6d7c61214632dead8460010160009054906101000a900473ffffffffffffffffffffffffffffffffffffffff1683604051808373ffffffffffffffffffffffffffffffffffffffff1673ffffffffffffffffffffffffffffffffffffffff1681526020018281526020019250505060405180910390a2600193506117fb565b8082846003015442030281151561155a57fe5b048360030160008282540192505081905550600082111561176657600360009054906101000a900473ffffffffffffffffffffffffffffffffffffffff1673ffffffffffffffffffffffffffffffffffffffff166323b872dd8460010160009054906101000a900473ffffffffffffffffffffffffffffffffffffffff168560000160009054906101000a900473ffffffffffffffffffffffffffffffffffffffff16856040518463ffffffff167c0100000000000000000000000000000000000000000000000000000000028152600401808473ffffffffffffffffffffffffffffffffffffffff1673ffffffffffffffffffffffffffffffffffffffff1681526020018373ffffffffffffffffffffffffffffffffffffffff1673ffffffffffffffffffffffffffffffffffffffff1681526020018281526020019350505050602060405180830381600087803b1580156116b657600080fd5b505af11580156116ca573d6000803e3d6000fd5b505050506040513d60208110156116e057600080fd5b81019080805190602001909291905050501515611765576040517f08c379a00000000000000000000000000000000000000000000000000000000081526004018080602001828103825260138152602001807f7472616e7366657246726f6d206661696c65640000000000000000000000000081525060200191505060405180910390fd5b5b847fcb3dc00dad463d6e863a30d04ab42fb2164e4b3fcf950e4a6d7c61214632dead8460010160009054906101000a900473ffffffffffffffffffffffffffffffffffffffff1684604051808373ffffffffffffffffffffffffffffffffffffffff1673ffffffffffffffffffffffffffffffffffffffff1681526020018281526020019250505060405180910390a2600093505b505050919050565b6000809054906101000a900473ffffffffffffffffffffffffffffffffffffffff1681565b60015481565b60025481565b6000600480549050905090565b60008060048381548110151561185357fe5b9060005260206000209060040201905062015180600254600154836003015442038460020154020281151561188457fe5b0481151561188e57fe5b04915050919050565b6000809054906101000a900473ffffffffffffffffffffffffffffffffffffffff1673ffffffffffffffffffffffffffffffffffffffff163373ffffffffffffffffffffffffffffffffffffffff161415156118f257600080fd5b6118fb8161197d565b50565b60048181548110151561190d57fe5b90600052602060002090600402016000915090508060000160009054906101000a900473ffffffffffffffffffffffffffffffffffffffff16908060010160009054906101000a900473ffffffffffffffffffffffffffffffffffffffff16908060020154908060030154905084565b600073ffffffffffffffffffffffffffffffffffffffff168173ffffffffffffffffffffffffffffffffffffffff16141515156119b957600080fd5b8073ffffffffffffffffffffffffffffffffffffffff166000809054906101000a900473ffffffffffffffffffffffffffffffffffffffff1673ffffffffffffffffffffffffffffffffffffffff167f8be0079c531659141344cd1fd0a4f28419497f9722a3daafe3b4186f6b6457e060405160405180910390a3806000806101000a81548173ffffffffffffffffffffffffffffffffffffffff021916908373ffffffffffffffffffffffffffffffffffffffff16021790555050565b608060405190810160405280600073ffffffffffffffffffffffffffffffffffffffff168152602001600073ffffffffffffffffffffffffffffffffffffffff168152602001600081526020016000815250905600a165627a7a72305820028ce847ffed351d27d5611a5c9be0c6b8e29dc259d891d558e8bd02c91465410029",
  "source": "pragma solidity ^0.4.24;\nimport 'zeppelin-solidity/contracts/ownership/Ownable.sol';\nimport 'zeppelin-solidity/contracts/token/ERC20/ERC20.sol';\n\ncontract HarbergerAds is Ownable {\n    // Per day tax rate\n    uint256 public taxNumerator;\n    uint256 public taxDenominator;\n\n    ERC20 public erc20;\n\n    struct Property {\n        address taxRecipient;\n        address owner;\n        uint256 price;\n        uint256 paidThru;\n    }\n\n    Property[] public properties;\n\n    constructor(\n        ERC20 erc20Address,\n        uint256 _taxNumerator,\n        uint256 _taxDenominator\n    ) public {\n        taxNumerator = _taxNumerator;\n        taxDenominator = _taxDenominator;\n        erc20 = erc20Address;\n    }\n\n    function taxesDue(uint256 id) public view returns (uint256) {\n        Property storage p = properties[id];\n\n        return p.price * (now - p.paidThru) * taxNumerator\n            / taxDenominator / 1 days;\n    }\n\n    function balanceOf(address user) public constant returns (uint256) {\n        uint256 balance = erc20.balanceOf(user);\n        uint256 allowance = erc20.allowance(user, this);\n        if (balance > allowance) {\n            return allowance;\n        } else {\n            return balance;\n        }\n    }\n\n    event Change(uint256 indexed id, address indexed to, address indexed from, uint256 price);\n    event ChangeRecipient(uint256 indexed id, address indexed to, address indexed from);\n    event TaxesPaid(uint256 indexed id, address owner, uint256 paid);\n\n    function addProperty(uint256 price) public {\n        Property memory p;\n        p.owner = msg.sender;\n        p.taxRecipient = msg.sender;\n        p.price = price;\n        uint256 id = properties.push(p) - 1;\n        emit Change(id, msg.sender, 0, price);\n    }\n\n    // Possibly foreclose on property[id]\n    function forecloseIfPossible(uint256 id) public {\n        Property storage p = properties[id];\n        // Owner must be broke and behind on taxes to foreclose\n        if (p.owner != p.taxRecipient && balanceOf(p.owner) == 0 && p.paidThru < now && p.price > 0) {\n            emit Change(id, 0, p.owner, 0);\n            delete(properties[id]);\n        }\n    }\n\n    // Collect taxes due from account.\n    // Return true if taxes fully paid, false otherwise\n    function collectTaxes(uint256 id) public returns (bool) {\n        Property storage p = properties[id];\n        if (p.owner == p.taxRecipient) {\n            p.paidThru = uint256(now);\n            return true;\n        }\n        uint256 balance = balanceOf(p.owner);\n        uint256 taxes = taxesDue(id);\n        if (taxes <= balance) {\n            p.paidThru = uint256(now);\n            if (taxes > 0) {\n                require(erc20.transferFrom(p.owner, p.taxRecipient, taxes), 'transferFrom failed');\n            }\n            emit TaxesPaid(id, p.owner, taxes);\n            return true;\n        } else {\n            // Adjust paidThru proportionally (overflow check unnecessary)\n            p.paidThru += uint256((now - p.paidThru) * balance / taxes);\n\n            // Collect entire balance for partially-paid taxes\n            if (balance > 0) {\n                require(erc20.transferFrom(p.owner, p.taxRecipient, balance), 'transferFrom failed');\n            }\n            emit TaxesPaid(id, p.owner, balance);\n            return false;\n        }\n    }\n\n    // Try to buy property for no more than 'max'\n    function buy(\n        uint256 id,\n        uint256 max,\n        uint256 price\n    )\n        public\n    {\n        Property storage p = properties[id];\n\n        // Collect taxes from property's owner and possibly foreclose on property[id].\n        collectTaxes(id);\n\n        // Foreclosure may change price and seller.\n        forecloseIfPossible(id);\n        address seller = p.owner;\n\n        if (seller != msg.sender) {\n            require(max >= p.price, \"price is too high\");\n\n            require(balanceOf(msg.sender) >= p.price,\n                \"insufficient funds\");\n\n            // Transfer purchase price\n            if (p.price > 0) {\n                require(erc20.transferFrom(p.owner, seller, p.price), 'transferFrom failed');\n            }\n            p.owner = msg.sender;\n        }\n\n        p.price = price;\n        emit Change(id, msg.sender, seller, price);\n    }\n\n    function propertyCount() public view returns (uint256) {\n        return properties.length;\n    }\n\n    function changeRecipient(uint256 id, address newRecipient) public {\n        require(msg.sender == properties[id].taxRecipient, \"must be previous taxRecipient\");\n        properties[id].taxRecipient = newRecipient;\n        emit ChangeRecipient(id, newRecipient, msg.sender);\n    }\n\n}\n",
  "sourcePath": "/Users/billy/sol/harberger-ads/contracts/HarbergerAds.sol",
  "compiler": {
    "name": "solc",
    "version": "0.4.25+commit.59dbf8f1.Emscripten.clang"
  },
  "schemaVersion": "3.0.0-beta.1",
  "updatedAt": "2018-10-07T06:22:16.639Z"
}