{
  "contractName": "HarbergerAds",
  "abi": [
    {
      "constant": false,
      "inputs": [],
      "name": "renounceOwnership",
      "outputs": [],
      "payable": false,
      "stateMutability": "nonpayable",
      "type": "function"
    },
    {
      "constant": true,
      "inputs": [],
      "name": "erc20",
      "outputs": [
        {
          "name": "",
          "type": "address"
        }
      ],
      "payable": false,
      "stateMutability": "view",
      "type": "function"
    },
    {
      "constant": true,
      "inputs": [],
      "name": "owner",
      "outputs": [
        {
          "name": "",
          "type": "address"
        }
      ],
      "payable": false,
      "stateMutability": "view",
      "type": "function"
    },
    {
      "constant": true,
      "inputs": [],
      "name": "taxNumerator",
      "outputs": [
        {
          "name": "",
          "type": "uint256"
        }
      ],
      "payable": false,
      "stateMutability": "view",
      "type": "function"
    },
    {
      "constant": true,
      "inputs": [],
      "name": "taxDenominator",
      "outputs": [
        {
          "name": "",
          "type": "uint256"
        }
      ],
      "payable": false,
      "stateMutability": "view",
      "type": "function"
    },
    {
      "constant": false,
      "inputs": [
        {
          "name": "_newOwner",
          "type": "address"
        }
      ],
      "name": "transferOwnership",
      "outputs": [],
      "payable": false,
      "stateMutability": "nonpayable",
      "type": "function"
    },
    {
      "constant": true,
      "inputs": [
        {
          "name": "",
          "type": "uint256"
        }
      ],
      "name": "properties",
      "outputs": [
        {
          "name": "taxRecipient",
          "type": "address"
        },
        {
          "name": "owner",
          "type": "address"
        },
        {
          "name": "price",
          "type": "uint256"
        },
        {
          "name": "paidThru",
          "type": "uint256"
        }
      ],
      "payable": false,
      "stateMutability": "view",
      "type": "function"
    },
    {
      "inputs": [
        {
          "name": "erc20Address",
          "type": "address"
        },
        {
          "name": "_taxNumerator",
          "type": "uint256"
        },
        {
          "name": "_taxDenominator",
          "type": "uint256"
        }
      ],
      "payable": false,
      "stateMutability": "nonpayable",
      "type": "constructor"
    },
    {
      "anonymous": false,
      "inputs": [
        {
          "indexed": true,
          "name": "id",
          "type": "uint256"
        },
        {
          "indexed": true,
          "name": "to",
          "type": "address"
        },
        {
          "indexed": true,
          "name": "from",
          "type": "address"
        },
        {
          "indexed": false,
          "name": "price",
          "type": "uint256"
        }
      ],
      "name": "Change",
      "type": "event"
    },
    {
      "anonymous": false,
      "inputs": [
        {
          "indexed": true,
          "name": "id",
          "type": "uint256"
        },
        {
          "indexed": true,
          "name": "to",
          "type": "address"
        },
        {
          "indexed": true,
          "name": "from",
          "type": "address"
        }
      ],
      "name": "ChangeRecipient",
      "type": "event"
    },
    {
      "anonymous": false,
      "inputs": [
        {
          "indexed": true,
          "name": "id",
          "type": "uint256"
        },
        {
          "indexed": false,
          "name": "owner",
          "type": "address"
        },
        {
          "indexed": false,
          "name": "paid",
          "type": "uint256"
        }
      ],
      "name": "TaxesPaid",
      "type": "event"
    },
    {
      "anonymous": false,
      "inputs": [
        {
          "indexed": true,
          "name": "previousOwner",
          "type": "address"
        }
      ],
      "name": "OwnershipRenounced",
      "type": "event"
    },
    {
      "anonymous": false,
      "inputs": [
        {
          "indexed": true,
          "name": "previousOwner",
          "type": "address"
        },
        {
          "indexed": true,
          "name": "newOwner",
          "type": "address"
        }
      ],
      "name": "OwnershipTransferred",
      "type": "event"
    },
    {
      "constant": true,
      "inputs": [
        {
          "name": "id",
          "type": "uint256"
        }
      ],
      "name": "taxesDue",
      "outputs": [
        {
          "name": "",
          "type": "uint256"
        }
      ],
      "payable": false,
      "stateMutability": "view",
      "type": "function"
    },
    {
      "constant": true,
      "inputs": [
        {
          "name": "user",
          "type": "address"
        }
      ],
      "name": "balanceOf",
      "outputs": [
        {
          "name": "",
          "type": "uint256"
        }
      ],
      "payable": false,
      "stateMutability": "view",
      "type": "function"
    },
    {
      "constant": false,
      "inputs": [],
      "name": "addProperty",
      "outputs": [],
      "payable": false,
      "stateMutability": "nonpayable",
      "type": "function"
    },
    {
      "constant": false,
      "inputs": [
        {
          "name": "id",
          "type": "uint256"
        }
      ],
      "name": "forecloseIfPossible",
      "outputs": [],
      "payable": false,
      "stateMutability": "nonpayable",
      "type": "function"
    },
    {
      "constant": false,
      "inputs": [
        {
          "name": "id",
          "type": "uint256"
        }
      ],
      "name": "collectTaxes",
      "outputs": [
        {
          "name": "",
          "type": "bool"
        }
      ],
      "payable": false,
      "stateMutability": "nonpayable",
      "type": "function"
    },
    {
      "constant": false,
      "inputs": [
        {
          "name": "id",
          "type": "uint256"
        },
        {
          "name": "max",
          "type": "uint256"
        },
        {
          "name": "price",
          "type": "uint256"
        }
      ],
      "name": "buy",
      "outputs": [],
      "payable": false,
      "stateMutability": "nonpayable",
      "type": "function"
    },
    {
      "constant": true,
      "inputs": [],
      "name": "propertyCount",
      "outputs": [
        {
          "name": "",
          "type": "uint256"
        }
      ],
      "payable": false,
      "stateMutability": "view",
      "type": "function"
    },
    {
      "constant": false,
      "inputs": [
        {
          "name": "id",
          "type": "uint256"
        },
        {
          "name": "newRecipient",
          "type": "address"
        }
      ],
      "name": "changeRecipient",
      "outputs": [],
      "payable": false,
      "stateMutability": "nonpayable",
      "type": "function"
    }
  ],
  "bytecode": "0x608060405234801561001057600080fd5b50604051606080611a64833981018060405281019080805190602001909291908051906020019092919080519060200190929190505050336000806101000a81548173ffffffffffffffffffffffffffffffffffffffff021916908373ffffffffffffffffffffffffffffffffffffffff160217905550816001819055508060028190555082600360006101000a81548173ffffffffffffffffffffffffffffffffffffffff021916908373ffffffffffffffffffffffffffffffffffffffff16021790555050505061197c806100e86000396000f3006080604052600436106100db576000357c0100000000000000000000000000000000000000000000000000000000900463ffffffff1680632dd2689c146100e057806340993b26146100f75780636e1d4d8e1461013857806370a0823114610185578063715018a6146101dc5780637612aee3146101f3578063785e9e86146102205780637b74b8ec146102775780638da5cb5b146102bc5780639631af0b14610313578063b361b2b51461033e578063c361a33514610369578063eb43107f14610394578063f2fde38b146103d5578063f7b1080814610418575b600080fd5b3480156100ec57600080fd5b506100f56104c6565b005b34801561010357600080fd5b5061013660048036038101908080359060200190929190803590602001909291908035906020019092919050505061061f565b005b34801561014457600080fd5b5061018360048036038101908080359060200190929190803573ffffffffffffffffffffffffffffffffffffffff169060200190929190505050610a48565b005b34801561019157600080fd5b506101c6600480360381019080803573ffffffffffffffffffffffffffffffffffffffff169060200190929190505050610be9565b6040518082815260200191505060405180910390f35b3480156101e857600080fd5b506101f1610e31565b005b3480156101ff57600080fd5b5061021e60048036038101908080359060200190929190505050610f33565b005b34801561022c57600080fd5b506102356110a1565b604051808273ffffffffffffffffffffffffffffffffffffffff1673ffffffffffffffffffffffffffffffffffffffff16815260200191505060405180910390f35b34801561028357600080fd5b506102a2600480360381019080803590602001909291905050506110c7565b604051808215151515815260200191505060405180910390f35b3480156102c857600080fd5b506102d1611687565b604051808273ffffffffffffffffffffffffffffffffffffffff1673ffffffffffffffffffffffffffffffffffffffff16815260200191505060405180910390f35b34801561031f57600080fd5b506103286116ac565b6040518082815260200191505060405180910390f35b34801561034a57600080fd5b506103536116b2565b6040518082815260200191505060405180910390f35b34801561037557600080fd5b5061037e6116b8565b6040518082815260200191505060405180910390f35b3480156103a057600080fd5b506103bf600480360381019080803590602001909291905050506116c5565b6040518082815260200191505060405180910390f35b3480156103e157600080fd5b50610416600480360381019080803573ffffffffffffffffffffffffffffffffffffffff16906020019092919050505061171b565b005b34801561042457600080fd5b5061044360048036038101908080359060200190929190505050611782565b604051808573ffffffffffffffffffffffffffffffffffffffff1673ffffffffffffffffffffffffffffffffffffffff1681526020018473ffffffffffffffffffffffffffffffffffffffff1673ffffffffffffffffffffffffffffffffffffffff16815260200183815260200182815260200194505050505060405180910390f35b6104ce6118fb565b600033826000019073ffffffffffffffffffffffffffffffffffffffff16908173ffffffffffffffffffffffffffffffffffffffff168152505060016004839080600181540180825580915050906001820390600052602060002090600402016000909192909190915060008201518160000160006101000a81548173ffffffffffffffffffffffffffffffffffffffff021916908373ffffffffffffffffffffffffffffffffffffffff16021790555060208201518160010160006101000a81548173ffffffffffffffffffffffffffffffffffffffff021916908373ffffffffffffffffffffffffffffffffffffffff16021790555060408201518160020155606082015181600301555050039050600080827f62c73e9b417b0f3e1319208e857f8ead9b12f27b0a101587170d80787bb6562960006040518082815260200191505060405180910390a45050565b60008060048581548110151561063157fe5b9060005260206000209060040201915061064a856110c7565b5061065485610f33565b8160010160009054906101000a900473ffffffffffffffffffffffffffffffffffffffff1690503373ffffffffffffffffffffffffffffffffffffffff168173ffffffffffffffffffffffffffffffffffffffff161415156109d2578160020154841015151561072c576040517f08c379a00000000000000000000000000000000000000000000000000000000081526004018080602001828103825260118152602001807f707269636520697320746f6f206869676800000000000000000000000000000081525060200191505060405180910390fd5b816002015461073a33610be9565b101515156107b0576040517f08c379a00000000000000000000000000000000000000000000000000000000081526004018080602001828103825260128152602001807f696e73756666696369656e742066756e6473000000000000000000000000000081525060200191505060405180910390fd5b60008260020154111561098e57600360009054906101000a900473ffffffffffffffffffffffffffffffffffffffff1673ffffffffffffffffffffffffffffffffffffffff166323b872dd8360010160009054906101000a900473ffffffffffffffffffffffffffffffffffffffff168385600201546040518463ffffffff167c0100000000000000000000000000000000000000000000000000000000028152600401808473ffffffffffffffffffffffffffffffffffffffff1673ffffffffffffffffffffffffffffffffffffffff1681526020018373ffffffffffffffffffffffffffffffffffffffff1673ffffffffffffffffffffffffffffffffffffffff1681526020018281526020019350505050602060405180830381600087803b1580156108de57600080fd5b505af11580156108f2573d6000803e3d6000fd5b505050506040513d602081101561090857600080fd5b8101908080519060200190929190505050151561098d576040517f08c379a00000000000000000000000000000000000000000000000000000000081526004018080602001828103825260138152602001807f7472616e7366657246726f6d206661696c65640000000000000000000000000081525060200191505060405180910390fd5b5b338260010160006101000a81548173ffffffffffffffffffffffffffffffffffffffff021916908373ffffffffffffffffffffffffffffffffffffffff1602179055505b8282600201819055508073ffffffffffffffffffffffffffffffffffffffff163373ffffffffffffffffffffffffffffffffffffffff16867f62c73e9b417b0f3e1319208e857f8ead9b12f27b0a101587170d80787bb65629866040518082815260200191505060405180910390a45050505050565b600482815481101515610a5757fe5b906000526020600020906004020160000160009054906101000a900473ffffffffffffffffffffffffffffffffffffffff1673ffffffffffffffffffffffffffffffffffffffff163373ffffffffffffffffffffffffffffffffffffffff16141515610b2b576040517f08c379a000000000000000000000000000000000000000000000000000000000815260040180806020018281038252601d8152602001807f6d7573742062652070726576696f757320746178526563697069656e7400000081525060200191505060405180910390fd5b80600483815481101515610b3b57fe5b906000526020600020906004020160000160006101000a81548173ffffffffffffffffffffffffffffffffffffffff021916908373ffffffffffffffffffffffffffffffffffffffff1602179055503373ffffffffffffffffffffffffffffffffffffffff168173ffffffffffffffffffffffffffffffffffffffff16837f762566a6fa8037441ab8186300bd5e7d04d774e7b629a4277f84fcbf0bb17f9460405160405180910390a45050565b6000806000600360009054906101000a900473ffffffffffffffffffffffffffffffffffffffff1673ffffffffffffffffffffffffffffffffffffffff166370a08231856040518263ffffffff167c0100000000000000000000000000000000000000000000000000000000028152600401808273ffffffffffffffffffffffffffffffffffffffff1673ffffffffffffffffffffffffffffffffffffffff168152602001915050602060405180830381600087803b158015610cab57600080fd5b505af1158015610cbf573d6000803e3d6000fd5b505050506040513d6020811015610cd557600080fd5b81019080805190602001909291905050509150600360009054906101000a900473ffffffffffffffffffffffffffffffffffffffff1673ffffffffffffffffffffffffffffffffffffffff1663dd62ed3e85306040518363ffffffff167c0100000000000000000000000000000000000000000000000000000000028152600401808373ffffffffffffffffffffffffffffffffffffffff1673ffffffffffffffffffffffffffffffffffffffff1681526020018273ffffffffffffffffffffffffffffffffffffffff1673ffffffffffffffffffffffffffffffffffffffff16815260200192505050602060405180830381600087803b158015610dd957600080fd5b505af1158015610ded573d6000803e3d6000fd5b505050506040513d6020811015610e0357600080fd5b8101908080519060200190929190505050905080821115610e2657809250610e2a565b8192505b5050919050565b6000809054906101000a900473ffffffffffffffffffffffffffffffffffffffff1673ffffffffffffffffffffffffffffffffffffffff163373ffffffffffffffffffffffffffffffffffffffff16141515610e8c57600080fd5b6000809054906101000a900473ffffffffffffffffffffffffffffffffffffffff1673ffffffffffffffffffffffffffffffffffffffff167ff8df31144d9c2f0f6b59d69b8b98abd5459d07f2742c4df920b25aae33c6482060405160405180910390a260008060006101000a81548173ffffffffffffffffffffffffffffffffffffffff021916908373ffffffffffffffffffffffffffffffffffffffff160217905550565b6000600482815481101515610f4457fe5b906000526020600020906004020190506000610f838260010160009054906101000a900473ffffffffffffffffffffffffffffffffffffffff16610be9565b148015610f935750428160030154105b8015610fa3575060008160020154115b1561109d578060010160009054906101000a900473ffffffffffffffffffffffffffffffffffffffff1673ffffffffffffffffffffffffffffffffffffffff166000837f62c73e9b417b0f3e1319208e857f8ead9b12f27b0a101587170d80787bb6562960006040518082815260200191505060405180910390a460048281548110151561102d57fe5b9060005260206000209060040201600080820160006101000a81549073ffffffffffffffffffffffffffffffffffffffff02191690556001820160006101000a81549073ffffffffffffffffffffffffffffffffffffffff02191690556002820160009055600382016000905550505b5050565b600360009054906101000a900473ffffffffffffffffffffffffffffffffffffffff1681565b6000806000806004858154811015156110dc57fe5b906000526020600020906004020192506111198360010160009054906101000a900473ffffffffffffffffffffffffffffffffffffffff16610be9565b9150611124856116c5565b905081811115156113cb57428360030181905550600081111561133257600360009054906101000a900473ffffffffffffffffffffffffffffffffffffffff1673ffffffffffffffffffffffffffffffffffffffff166323b872dd8460010160009054906101000a900473ffffffffffffffffffffffffffffffffffffffff168560000160009054906101000a900473ffffffffffffffffffffffffffffffffffffffff16846040518463ffffffff167c0100000000000000000000000000000000000000000000000000000000028152600401808473ffffffffffffffffffffffffffffffffffffffff1673ffffffffffffffffffffffffffffffffffffffff1681526020018373ffffffffffffffffffffffffffffffffffffffff1673ffffffffffffffffffffffffffffffffffffffff1681526020018281526020019350505050602060405180830381600087803b15801561128257600080fd5b505af1158015611296573d6000803e3d6000fd5b505050506040513d60208110156112ac57600080fd5b81019080805190602001909291905050501515611331576040517f08c379a00000000000000000000000000000000000000000000000000000000081526004018080602001828103825260138152602001807f7472616e7366657246726f6d206661696c65640000000000000000000000000081525060200191505060405180910390fd5b5b847fcb3dc00dad463d6e863a30d04ab42fb2164e4b3fcf950e4a6d7c61214632dead8460010160009054906101000a900473ffffffffffffffffffffffffffffffffffffffff1683604051808373ffffffffffffffffffffffffffffffffffffffff1673ffffffffffffffffffffffffffffffffffffffff1681526020018281526020019250505060405180910390a26001935061167f565b808284600301544203028115156113de57fe5b04836003016000828254019250508190555060008211156115ea57600360009054906101000a900473ffffffffffffffffffffffffffffffffffffffff1673ffffffffffffffffffffffffffffffffffffffff166323b872dd8460010160009054906101000a900473ffffffffffffffffffffffffffffffffffffffff168560000160009054906101000a900473ffffffffffffffffffffffffffffffffffffffff16856040518463ffffffff167c0100000000000000000000000000000000000000000000000000000000028152600401808473ffffffffffffffffffffffffffffffffffffffff1673ffffffffffffffffffffffffffffffffffffffff1681526020018373ffffffffffffffffffffffffffffffffffffffff1673ffffffffffffffffffffffffffffffffffffffff1681526020018281526020019350505050602060405180830381600087803b15801561153a57600080fd5b505af115801561154e573d6000803e3d6000fd5b505050506040513d602081101561156457600080fd5b810190808051906020019092919050505015156115e9576040517f08c379a00000000000000000000000000000000000000000000000000000000081526004018080602001828103825260138152602001807f7472616e7366657246726f6d206661696c65640000000000000000000000000081525060200191505060405180910390fd5b5b847fcb3dc00dad463d6e863a30d04ab42fb2164e4b3fcf950e4a6d7c61214632dead8460010160009054906101000a900473ffffffffffffffffffffffffffffffffffffffff1684604051808373ffffffffffffffffffffffffffffffffffffffff1673ffffffffffffffffffffffffffffffffffffffff1681526020018281526020019250505060405180910390a2600093505b505050919050565b6000809054906101000a900473ffffffffffffffffffffffffffffffffffffffff1681565b60015481565b60025481565b6000600480549050905090565b6000806004838154811015156116d757fe5b9060005260206000209060040201905062015180600254600154836003015442038460020154020281151561170857fe5b0481151561171257fe5b04915050919050565b6000809054906101000a900473ffffffffffffffffffffffffffffffffffffffff1673ffffffffffffffffffffffffffffffffffffffff163373ffffffffffffffffffffffffffffffffffffffff1614151561177657600080fd5b61177f81611801565b50565b60048181548110151561179157fe5b90600052602060002090600402016000915090508060000160009054906101000a900473ffffffffffffffffffffffffffffffffffffffff16908060010160009054906101000a900473ffffffffffffffffffffffffffffffffffffffff16908060020154908060030154905084565b600073ffffffffffffffffffffffffffffffffffffffff168173ffffffffffffffffffffffffffffffffffffffff161415151561183d57600080fd5b8073ffffffffffffffffffffffffffffffffffffffff166000809054906101000a900473ffffffffffffffffffffffffffffffffffffffff1673ffffffffffffffffffffffffffffffffffffffff167f8be0079c531659141344cd1fd0a4f28419497f9722a3daafe3b4186f6b6457e060405160405180910390a3806000806101000a81548173ffffffffffffffffffffffffffffffffffffffff021916908373ffffffffffffffffffffffffffffffffffffffff16021790555050565b608060405190810160405280600073ffffffffffffffffffffffffffffffffffffffff168152602001600073ffffffffffffffffffffffffffffffffffffffff168152602001600081526020016000815250905600a165627a7a72305820ac2e04f7a643521672a6468248e515a9111edc7e5f3e4f960e8ee096736c38820029",
  "source": "pragma solidity ^0.4.24;\nimport 'zeppelin-solidity/contracts/ownership/Ownable.sol';\nimport 'zeppelin-solidity/contracts/token/ERC20/ERC20.sol';\n\ncontract HarbergerAds is Ownable {\n    // Per day tax rate\n    uint256 public taxNumerator;\n    uint256 public taxDenominator;\n\n    ERC20 public erc20;\n\n    struct Property {\n        address taxRecipient;\n        address owner;\n        uint256 price;\n        uint256 paidThru;\n    }\n\n    Property[] public properties;\n\n    constructor(\n        ERC20 erc20Address,\n        uint256 _taxNumerator,\n        uint256 _taxDenominator\n    ) public {\n        taxNumerator = _taxNumerator;\n        taxDenominator = _taxDenominator;\n        erc20 = erc20Address;\n    }\n\n    function taxesDue(uint256 id) public view returns (uint256) {\n        Property storage p = properties[id];\n\n        return p.price * (now - p.paidThru) * taxNumerator\n            / taxDenominator / 1 days;\n    }\n\n    function balanceOf(address user) public constant returns (uint256) {\n        uint256 balance = erc20.balanceOf(user);\n        uint256 allowance = erc20.allowance(user, this);\n        if (balance > allowance) {\n            return allowance;\n        } else {\n            return balance;\n        }\n    }\n\n    event Change(uint256 indexed id, address indexed to, address indexed from, uint256 price);\n    event ChangeRecipient(uint256 indexed id, address indexed to, address indexed from);\n    event TaxesPaid(uint256 indexed id, address owner, uint256 paid);\n\n    function addProperty() public {\n        Property memory p;\n        p.taxRecipient = msg.sender;\n        uint256 id = properties.push(p) - 1;\n        emit Change(id, 0, 0, 0);\n    }\n\n    // Possibly foreclose on property[id]\n    function forecloseIfPossible(uint256 id) public {\n        Property storage p = properties[id];\n\n        // Owner must be broke and behind on taxes to foreclose\n        if (balanceOf(p.owner) == 0 && p.paidThru < now && p.price > 0) {\n            emit Change(id, 0, p.owner, 0);\n            delete(properties[id]);\n        }\n    }\n\n    // Collect taxes due from account.\n    // Return true if taxes fully paid, false otherwise\n    function collectTaxes(uint256 id) public returns (bool) {\n        Property storage p = properties[id];\n        uint256 balance = balanceOf(p.owner);\n        uint256 taxes = taxesDue(id);\n        if (taxes <= balance) {\n            p.paidThru = uint256(now);\n            if (taxes > 0) {\n                require(erc20.transferFrom(p.owner, p.taxRecipient, taxes), 'transferFrom failed');\n            }\n            emit TaxesPaid(id, p.owner, taxes);\n            return true;\n        } else {\n            // Adjust paidThru proportionally (overflow check unnecessary)\n            p.paidThru += uint256((now - p.paidThru) * balance / taxes);\n\n            // Collect entire balance for partially-paid taxes\n            if (balance > 0) {\n                require(erc20.transferFrom(p.owner, p.taxRecipient, balance), 'transferFrom failed');\n            }\n            emit TaxesPaid(id, p.owner, balance);\n            return false;\n        }\n    }\n\n    // Try to buy property for no more than 'max'\n    function buy(\n        uint256 id,\n        uint256 max,\n        uint256 price\n    )\n        public\n    {\n        Property storage p = properties[id];\n\n        // Collect taxes from property's owner and possibly foreclose on property[id].\n        collectTaxes(id);\n\n        // Foreclosure may change price and seller.\n        forecloseIfPossible(id);\n        address seller = p.owner;\n\n        if (seller != msg.sender) {\n            require(max >= p.price, \"price is too high\");\n\n            require(balanceOf(msg.sender) >= p.price,\n                \"insufficient funds\");\n\n            // Transfer purchase price\n            if (p.price > 0) {\n                require(erc20.transferFrom(p.owner, seller, p.price), 'transferFrom failed');\n            }\n            p.owner = msg.sender;\n        }\n\n        p.price = price;\n        emit Change(id, msg.sender, seller, price);\n    }\n\n    function propertyCount() public view returns (uint256) {\n        return properties.length;\n    }\n\n    function changeRecipient(uint256 id, address newRecipient) public {\n        require(msg.sender == properties[id].taxRecipient, \"must be previous taxRecipient\");\n        properties[id].taxRecipient = newRecipient;\n        emit ChangeRecipient(id, newRecipient, msg.sender);\n    }\n\n}\n",
  "sourcePath": "/Users/billy/sol/harberger-ads/contracts/HarbergerAds.sol",
  "compiler": {
    "name": "solc",
    "version": "0.4.24+commit.e67f0147.Emscripten.clang"
  },
  "schemaVersion": "2.0.1",
  "updatedAt": "2018-10-07T00:18:57.395Z"
}